:100000000202382001FDD2018F992202051653BA4F
:10001000FE759A5075D7C675D6FF758E1475AF01EB
:10002000D2AF22020354759850E4F589758BC675DA
:100030008DFFD28E758E40F509F508C201D2AC2233
:100040000200260202C412045EE4F521F522AF226A
:1000500074232FF8E66475702B74242FF8E6B470BF
:10006000231204C27BFF7A0579AB1203817F647E81
:10007000001203CB7BFF7A0579BC1203817F647E7B
:10008000001203CBAF2274232FF8E66464702B7444
:10009000242FF8E6B46F231204CE7BFF7A0579ABE8
:1000A0001203817F647E001203CB7BFF7A0579BC4B
:1000B0001203817F647E001203CBAF2274232FF8DA
:1000C000E6646C702B74242FF8E6B466231204DA0D
:1000D0007BFF7A0579AB1203817F647E001203CB2C
:1000E0007BFF7A0579BC1203817F647E001203CB0B
:1000F000AF2274232FF8E66472702B74242FF8E675
:10010000B469231204E67BFF7A0579AB1203817F81
:10011000647E001203CB7BFF7A0579BC1203817FDA
:10012000647E001203CBAF2274232FF8E664737051
:100130002B74242FF8E6B474231204F27BFF7A05A3
:1001400079AB1203817F647E001203CB7BFF7A05BB
:1001500079BC1203817F647E001203CBAF2274232B
:100160002FF8E6646C702B74242FF8E6B463231226
:1001700004FE7BFF7A0579AB1203817F647E001257
:1001800003CB7BFF7A0579BC1203817F647E00126A
:1001900003CBAF2274232FF8E66472702B74242FE4
:1001A000F8E6B4632312050A7BFF7A0579AB1203E4
:1001B000817F647E001203CB7BFF7A0579BC12033A
:1001C000817F647E001203CBAF2274232FF8E66494
:1001D00073704C74242FF8E664657043F557F55836
:1001E0007F017E001203CBAE2274252EF8E6FF7449
:1001F000262EF8E6FD74272EF8E6FB74282EF8E686
:10020000F51E1203A60558E55870020557D394143D
:10021000E5576480948040C874242522F8767005E0
:1002200022E52270020521D3941EE521648094808A
:10023000500302004E020049787FE4F6D8FD758134
:100240006B02027F020046E493A3F8E493A3400309
:10025000F68001F208DFF48029E493A3F854072420
:100260000CC8C333C4540F4420C8834004F45680E0
:100270000146F6DFE4800B01020408102040809064
:10028000030EE47E019360BCA3FF543F30E50954A4
:100290001FFEE493A360010ECF54C025E060A84088
:1002A000B8E493A3FAE493A3F8E493A3C8C582C87F
:1002B000CAC583CAF0A3C8C582C8CAC583CADFE954
:1002C000DEE780BEC0E0C0D075D000C000C007E54A
:1002D0009A30E027539AFEAF9BEF640A60117423B3
:1002E000256BF8A607056BE56B700A056A80067535
:1002F0006A00756B00E59A5404F51AE59A30E10539
:10030000539AFDC200D007D000D0D0D0E0322032C6
:10031000233000000000000000000000000000008A
:1003200000000000000000000000000000000000CD
:1003300000000000000000000000000000000000BD
:1003400000000002210000025500000257000002D8
:100350006A000000C0E0C0D075D000C000C0073007
:100360009904C299C20130980FC298AF0905097467
:100370000A2FF8A69953090FD007D000D0D0D0E0AB
:10038000328B1B8A1C891DAB1BAA1CA91D120435AC
:100390006013051DE51D7002051C14F9120435FFDC
:1003A00012052180E2227562738F638D648B6585EF
:1003B0001E66AF62120545AF63120545AF641205B4
:1003C00045AF65120545AF660205457D017C00D34A
:1003D000ED9FEE6480F8EC6480985013751B1B75DC
:1003E0001C40D51CFDD51BFA0DBD00010C80E02280
:1003F0008B678A688969AB67AA68A9691204356046
:10040000130569E5697002056814F9120435FF12D5
:10041000000380E2227FAC7E0D1203CB7BFF7A05C6
:1004200079891203817FE87E031203CB7BFF7A0573
:100430007997020381BB010689828A83E0225002F8
:10044000E722BBFE02E32289828A83E49322E4F559
:1004500089758A36758CF7D28CD2A9D2AF22120058
:100460004012000E12041512044E0204F290FE8196
:100470007404F01204B690FE87E0FF2290FE8274AE
:1004800001F090FE817405F00204B675BA8090FE0A
:100490008074E0F090FE82E4F02290FE86EFF0900F
:1004A000FE817402F00204B690FE82E4F090FE81B8
:1004B0007405F00204B690FE82E030E6F9E054BF25
:1004C000F02212054D12055C12056B02057A120529
:1004D0005212056112057002057F12055212055C69
:1004E00012056B02057F12054D120561120570029F
:1004F000057A120557120566120575020584120564
:100500005212055C12057002057A12054D12056142
:1005100012056B02057FB2C2B280B282B284B2868B
:10052000322000FDEFD200F59B2290FE817401F095
:100530000204B690FE817403F00204B690FE81744A
:1005400006F00204B62001FDD2018F9922C2B2D278
:100550008122C2B2C28122D2B2D28122C2B3C2836C
:1005600022C2B3D28322D2B3D28322C2B4D2852292
:10057000C2B4C28522D2B4D28522C2C0C28722C2EE
:10058000C0D28722D2C0D2872241542B4349504D3A
:1005900055583D310D0A0041542B434950534552A3
:1005A0005645523D312C32330D0A0041542B4349FC
:1005B0005053454E443D302C330D0A006F6B0D0AED
:0105C000003A
:00000001FF
