:030000000201A357
:0C01A300787FE4F6D8FD75810F0200465D
:0B000300D3EF9401EE64809480502B3A
:10000E00750D01D3E50D9400748094804016750C27
:10001E0003D3E50C9400748094804004150C80F199
:04002E00150D80DF4D
:0B003200EF1F70CD1E80CAE4FEFF220D
:10016000AD07AC06D3ED9401EC64809480500E7F13
:10017000E87E03120003ED1D70EA1C80E7E4FEFF39
:01018000225C
:10018100759A5075D74175D6FD758E1475AF01D22C
:02019100AF229B
:0901AF00C2AC759B33539AFD228A
:0300430002019324
:10019300C0E0E59A30E006859B0F539AFED0E0322B
:10004600120181E4F50FF50AF50BE50FC4540F759F
:100056000800F509E50F540FFFE4FCFDFEFBFAF975
:100066007802120111AA06AB07E509640345087078
:1000760012D2B2C2B3D2B4C2B5D2B6C2B7D2C1C21C
:10008600C28058E509640445087016C2B2D2B3C2EC
:10009600B4D2B5C2B6D2B7C2C1D2C2AF03AE028025
:1000A6003AE509640245087016D2B2C2B3C2B4D2A8
:1000B600B5D2B6C2B7C2C1D2C2AF03AE02801CE58A
:1000C6000964014508702DC2B2D2B3D2B4C2B5C21A
:1000D600B6D2B7D2C1C2C2AF03AE02120160C2B27B
:1000E600C2B3C2B4C2B5C2B6C2B7C2C1C2C2750A31
:1000F60000750B01E50B6401450A70071201AFF5A7
:0B0106000FFAFBE4F50AF50B020050B5
:10011100E88FF0A4CC8BF0A42CFCE98EF0A42CFC8D
:100121008AF0EDA42CFCEA8EF0A4CDA8F08BF0A40B
:100131002DCC3825F0FDE98FF0A42CCD35F0FCEB6A
:100141008EF0A4FEA9F0EB8FF0A4CFC5F02ECD392F
:0F015100FEE43CFCEAA42DCE35F0FDE43CFC229C
:00000001FF
