:0300000002029168
:0C029100787FE4F6D8FD75812D0202D8BC
:10042500022500070227000702290007022B000703
:100435000214000002090000021B0000020C00006B
:0C044500020E0000021000000212000075
:10004600C286C2841203A9120525752445E4F50962
:10005600F50AE51AB45225E5246445601F75244562
:100066007F527E0012055C7F0A7E0012046D7F0AB5
:100076007E0012055C7F0A7E0012046DE524644151
:10008600702DE51AB442281203EB30CD22752442B6
:100096001205537F427E0012055C7F0A7E00120421
:1000A6006D7F0A7E0012055C7F0A7E0012046DE5F4
:1000B600246442600302016FE51A6443703512033B
:1000C600EB7F967E0012046D1204E6EF64014E701B
:1000D600227524431205537F437E0012055C7F0A76
:1000E6007E0012046D7F0A7E0012055C7F0A7E0088
:1000F60012046DE51A644170351200037F967E0086
:1001060012046D120452EF64014E702275244112DE
:1001160005537F417E0012055C7F0A7E0012046D46
:100126007F0A7E0012055C7F0A7E0012046DE51AC6
:100136006444703512031D7F967E0012046D12050D
:1001460047EF64014E70227524441205537F447EA6
:100156000012055C7F0A7E0012046D7F0A7E001283
:10016600055C7F0A7E0012046DE52464437035E564
:100176001A6442702F1200037F967E0012046D30BF
:1001860095227524421205537F427E0012055C7F3C
:100196000A7E0012046D7F0A7E0012055C7F0A7ECD
:1001A6000012046DE52464447070E51A6442702FF1
:1001B6001203637F967E0012046D308122752442FD
:1001C6001205537F427E0012055C7F0A7E001204F0
:1001D6006D7F0A7E0012055C7F0A7E0012046DE5C3
:1001E6001A644570351203EB7F967E0012046D1279
:1001F6000513EF64014E70227524451205537F45A1
:100206007E0012055C7F0A7E0012046D7F0A7E0066
:1002160012055C7F0A7E0012046DE5246445703A7F
:10022600E51AB4440A1200037F967E0012046D128A
:100236000547EF64014E70227524441205537F442E
:100246007E0012055C7F0A7E0012046D7F0A7E0026
:1002560012055C7F0A7E0012046D30860675244501
:10026600751A44308406752444751A45E50A45090D
:1002760060030200587F887E1312046D752445754D
:0B0286001A44750900750A01020058B7
:1003A900E4F594F593F592F591F596F595F5B2F591
:1003B900B1F5B4F5B3F5CAF5C9F5CCF5CBF5E2F568
:1003C900E1D294D295D293D2CCD2CDD292D2C8D204
:1003D900CAD2C9D2CBD281D280D2C4D2B4D2B6D2F7
:0203E900B72239
:08046D00C3EE64809480400D91
:06047500752D07D52DFDD9
:0B047B00EF1F70EE1E80EBE4FEFF227E
:100486007FDC7E0512046DB2C4B2B4B2B6B2B7C296
:0804960097C296D2C1D2C22226
:10049E007FDC7E0512046DB2C4B2B4B2B6B2B7D26E
:0804AE0097D296C2C1C2C2221E
:1004B6007FDC7E0512046DB2C4B2B4B2B6B2B7D256
:0804C60097C296C2C1D2C22206
:1004CE007FDC7E0512046DB2C4B2B4B2B6B2B7C24E
:0804DE0097D296D2C1C2C222DE
:03003D00C2B42228
:03004000C2C42215
:03056400C2B622FA
:03056700C2B722F6
:09055300C2C4C2B4C2B6C2B72290
:1004E60030811120CA0E20CD0B20C80820C9057EF8
:0804F600007F0122E4FEFF2259
:1004FE0030810E30950B30CD0830CA057E007F015D
:05050E0022E4FEFF22C3
:1004520030811430CA1120CD0E20950B2094082033
:0B04620093057E007F0122E4FEFF22D4
:0C0547003081057E007F0122E4FEFF22CF
:1005130020CA0B20C80820C9057E007F0122E4FE03
:02052300FF22B5
:10031D0012048630CB0920810612004012003D30B8
:10032D00800920810612056712056430CC0920CDA5
:10033D000612056712056430920920CD06120040A1
:10034D0012003D30CB0630CC031204CE3080063087
:06035D0092031204B62217
:1003630012049E30CB092081061205671205643002
:10037300800920810612004012003D30CC0920CDB7
:100383000612004012003D30920920CD0612056787
:1003930012056430CB0630CC031204CE3080063015
:0603A30092031204B622D1
:100003001204CE30C80620CA0312056730C9062081
:10001300CA031205643094062095031200403093FE
:100023000620950312003D30940630C8031204865F
:0A00330030930630C90312049E2228
:1003EB001204B630C80620CA0312056730C90620AE
:1003FB00CA03120564309406209503120040309313
:10040B000620950312003D30940630C80312048673
:0A041B0030930630C90312049E223C
:10052500759A5075D74175D6FD758E1475AF01D284
:02053500AF22F3
:08055C00C2AC8F9B539AFD22F3
:030043000205377C
:10053700C0E0E59A30E006859B0B539AFED0E03287
:10029D00020046E493A3F8E493A34003F68001F231
:1002AD0008DFF48029E493A3F85407240CC8C33362
:1002BD00C4540F4420C8834004F456800146F6DF31
:1002CD00E4800B0102040810204080900425E47E98
:1002DD00019360BCA3FF543F30E509541FFEE49326
:1002ED00A360010ECF54C025E060A840B8E493A3ED
:1002FD00FAE493A3F8E493A3C8C582C8CAC583CA18
:10030D00F0A3C8C582C8CAC583CADFE9DEE780BECF
:0104510000AA
:00000001FF
