:030000000203B741
:0C03B700787FE4F6D8FD75812B02015818
:0C03C300CED2B0AEB5A5C6ACBBFA20008F
:040046007F057E00B4
:0B004A00D3EF9401EE64809480502BF3
:10005500752B01D3E52B9400748094804016752A86
:1000650003D3E52A9400748094804004152A80F116
:04007500152B80DFE8
:0B007900EF1F70CD1E80CAE4FEFF22C6
:10036200AD07AC06D3ED9401EC64809480500E7F0F
:10037200E87E0312004AED1D70EA1C80E7E4FEFFEE
:010382002258
:10008400759850758920758E40758BA9758DA9D288
:040094008ED2AF2237
:10000300E4FFEF9003C393600AF5993099FDC29919
:0A0013000F80EF7F017E0002004A1B
:030023000203CF06
:0903CF00309805859910C298329E
:10038300759A5075D74175D6FD758E1475AF01D228
:02039300AF2297
:0903D800C2AC759B33539AFD225F
:030043000203A70E
:1003A700C0E0E59A30E006859B11539AFED0E03213
:0703E100C3ED9FFFEC9EFE3F
:0103E80022F2
:1003950043D10275D5F275D4FE43D10875AF20D28D
:0203A500AF2285
:03009B000203312C
:10033100C0E030A1080515E5157002051430A308C9
:100341000517E5177002051630A5080519E519709E
:1003510002051830A708051BE51B7002051AD0E03D
:010361003269
:10002600C3EE648094805009C3E49FFDE49EFC8087
:0900360004AC06AD07AF05AE04F1
:01003F00229E
:10009E007B057A00AF09AE081200268E838F82AFE1
:1000AE0015AE14120026C3EF9582FFEE9583FEC3A4
:1000BE00EF9B7480F86E985006850814850915AF6D
:1000CE000BAE0A1200268E838F82AF17AE16120069
:1000DE0026C3EF9582FFEE9583FEC3EF9BEA648005
:1000EE00F8EE6480985006850A16850B17AF0DAE94
:1000FE000C1200268E838F82AF19AE18120026C303
:10010E00EF9582FFEE9583FEC3EF9BEA6480F8EED7
:10011E006480985006850C18850D19AF0FAE0E121F
:10012E0000268E838F82AF1BAE1A120026C3EF9568
:10013E0082FFEE9583FEC3EF9BEA6480F8EE648047
:09014E00985006850E1A850F1B5E
:010157002285
:10020A00D3E51D9400E51C648094804006D2B2C2F6
:10021A00B38013C3E51C648094805006C2B2D2B383
:10022A008004C2B2C2B3120046D3E51F9400E51E91
:10023A00648094804006C2B4D2B58013C3E51E64BC
:10024A008094805006D2B4C2B58004C2B4C2B5123A
:10025A000046D3E5219400E520648094804006D2CC
:10026A00B6C2B78013C3E520648094805006C2B634
:10027A00D2B78004C2B6C2B7120046D3E5239400AF
:10028A00E522648094804006D2C1C2C28013C3E5CD
:10029A0022648094805006C2C1D2C28004C2C1C204
:0802AA00C27F057E0002004A3C
:1002B200AD09AC08AF15AE141203E18E1C8F1DAD53
:1002C2000BAC0AAF17AE161203E18E1E8F1FAD0DD7
:1002D200AC0CAF19AE181203E18E208F21AD0FAC1A
:1002E2000EAF1BAE1A1203E18E228F2312009E1252
:1002F200020AE509250BFFE508350AFEE50D2FFF89
:10030200E50C3EFEE50F2FFFE50E3EFEE51D251F27
:10031200FDE51C351EFCE5212DFDE5203CFCE52319
:0F0322002DCDE5223CCDC39FFFED9E4F60822283
:10015800120084120383E4F511752600752732E531
:10016800116411701485260885270985260A8527B4
:100178000B85260C85270D8061E5116422701DC34F
:100188009527FFE49526F5088F09F50A8F0BC3E438
:100198009527FFE49526F50C8F0D801DE511643336
:1001A800701D852608852709C39527FFE49526F540
:1001B8000A8F0B85260C85270DF50E8F0F8021E5FC
:1001C8001164447027C39527FFE49526F5088F0925
:1001D80085260A85270BF50C8F0D85260E85270F9A
:1001E8001202B2120395752800752901E4F511E58C
:1001F800296401452870031203D8E4F528F529027B
:02020800016192
:00000001FF
